:020000040800F2
:10400000FFFF0120215B000823A5000825A500086B
:104010003DA600083FA6000841A6000800000000D9
:1040200000000000000000000000000055700008C3
:1040300043A6000800000000C570000815A5000890
:10404000655B0008655B0008655B0008655B000850
:10405000655B0008655B0008655B0008655B000840
:10406000655B0008655B000853A60008518E0008D8
:10407000655B0008858E0008655B0008798E000886
:1040800047A60008458E0008655B0008655B0008D0
:10409000655B0008655B0008655B0008655B000800
:1040A000655B0008655B0008655B0008655B0008F0
:1040B00045A60008655B0008655B0008298E0008BE
:1040C000358E0008655B0008655B0008655B0008CD
:1040D000655B0008655B000857A60008655B000883
:1040E0004FA60008655B0008655B0008655B00087B
:1040F000655B0008655B0008655B0008655B0008A0
:10410000655B0008655B0008655B0008655B00088F
:104110005BA60008655B0008655B0008655B00083E
:10412000655B0008655B0008655B0008655B00086F
:10413000655B0008655B0008655B0008655B00085F
:10414000655B0008655B0008655B000865A6000804
:10415000655B0008655B00084BA600085FA60008C9
:104160005D8E0008698E0008655B0008655B0008CD
:10417000655B0008655B0008655B0008655B00081F
:08418000655B0008655B0008A7
:1041A00081F0004102E000BF83F0004330B54FEAE8
:1041B00041044FEA430594EA050F08BF90EA020F55
:1041C0001FBF54EA000C55EA020C7FEA645C7FEAE8
:1041D000655C00F0E2804FEA5454D4EB5555B8BF0B
:1041E0006D420CDD2C4480EA020281EA030382EA7C
:1041F000000083EA010180EA020281EA0303362D0E
:1042000088BF30BD11F0004F4FEA01314FF4801CE0
:104210004CEA113102D0404261EB410113F0004FF2
:104220004FEA03334CEA133302D0524263EB4303A9
:1042300094EA050F00F0A780A4F10104D5F1200E47
:104240000DDB02FA0EFC22FA05F2801841F10001A2
:1042500003FA0EF2801843FA05F359410EE0A5F176
:1042600020050EF1200E012A03FA0EFC28BF4CF0A7
:10427000020C43FA05F3C01851EBE37101F000455D
:1042800007D54FF0000EDCF1000C7EEB00006EEB6A
:104290000101B1F5801F1BD3B1F5001F0CD34908F4
:1042A0005FEA30004FEA3C0C04F101044FEA44524B
:1042B00012F5800F80F09A80BCF1004F08BF5FEAD2
:1042C000500C50F1000041EB045141EA050130BDB2
:1042D0005FEA4C0C404141EB010111F4801FA4F155
:1042E0000104E9D191F0000F04BF01460020B1FAAA
:1042F00081F308BF2033A3F10B03B3F120020CDAE2
:104300000C3208DD02F1140CC2F10C0201FA0CF0BF
:1043100021FA02F10CE002F11402D8BFC2F1200C24
:1043200001FA02F120FA0CFCDCBF41EA0C019040DA
:10433000E41AA2BF01EB0451294330BD6FEA040423
:104340001F3C1CDA0C340EDC04F11404C4F120020E
:1043500020FA04F001FA02F340EA030021FA04F320
:1043600045EA030130BDC4F10C04C4F1200220FA77
:1043700002F001FA04F340EA0300294630BD21FAB5
:1043800004F0294630BD94F0000F83F4801306BF7B
:1043900081F480110134013D4EE77FEA645C18BF6F
:1043A0007FEA655C29D094EA050F08BF90EA020F06
:1043B00005D054EA000C04BF1946104630BD91EAFE
:1043C000030F1EBF0021002030BD5FEA545C05D101
:1043D0004000494128BF41F0004130BD14F5800440
:1043E0003CBF01F5801130BD01F0004545F0FE41B4
:1043F00041F470014FF0000030BD7FEA645C1ABFE9
:10440000194610467FEA655C1CBF0B46024650EA1F
:10441000013406BF52EA033591EA030F41F400214B
:1044200030BD00BF90F0000F04BF0021704730B5D1
:104430004FF4806404F132044FF000054FF00001A6
:1044400050E700BF90F0000F04BF0021704730B567
:104450004FF4806404F1320410F0004548BF40423C
:104460004FF000013EE700BF42004FEAE2014FEA91
:1044700031014FEA02701FBF12F07F4393F07F4F6C
:1044800081F06051704792F0000F14BF93F07F4F9E
:10449000704730B54FF4607401F0004521F00041E1
:1044A00020E700BF50EA010208BF704730B54FF067
:1044B00000050AE050EA010208BF704730B511F06C
:1044C000004502D5404261EB41014FF4806404F1A4
:1044D00032045FEA915C3FF4DCAE4FF003025FEA26
:1044E000DC0C18BF03325FEADC0C18BF033202EBAE
:1044F000DC02C2F1200300FA03FC20FA02F001FA08
:1045000003FE40EA0E0021FA02F11444C1E600BFA6
:1045100070B54FF0FF0C4CF4E06C1CEA11541DBF59
:104520001CEA135594EA0C0F95EA0C0F00F0DEF824
:104530002C4481EA030621EA4C5123EA4C5350EA09
:10454000013518BF52EA033541F4801143F480135A
:1045500038D0A0FB02CE4FF00005E1FB02E506F0EB
:104560000042E0FB03E54FF00006E1FB03569CF040
:10457000000F18BF4EF0010EA4F1FF04B6F5007F46
:1045800064F5407404D25FEA4E0E6D4146EB0606B8
:1045900042EAC62141EA55514FEAC52040EA5E5041
:1045A0004FEACE2EB4F1FD0C88BFBCF5E06F1ED8EB
:1045B000BEF1004F08BF5FEA500E50F1000041EB22
:1045C000045170BD06F0004646EA010140EA0200CF
:1045D00081EA0301B4EB5C04C2BFD4EB0C0541EAF1
:1045E000045170BD41F480114FF0000E013C00F306
:1045F000AB8014F1360FDEBF002001F0004170BD2A
:10460000C4F10004203C35DA0C341BDC04F1140442
:10461000C4F1200500FA05F320FA04F001FA05F2CE
:1046200040EA020001F0004221F0004110EBD3709B
:1046300021FA04F642EB06015EEA430E08BF20EAC7
:10464000D37070BDC4F10C04C4F1200500FA04F36A
:1046500020FA05F001FA04F240EA020001F00041FC
:1046600010EBD37041F100015EEA430E08BF20EA6F
:10467000D37070BDC4F1200500FA05F24EEA020EB7
:1046800020FA04F301FA05F243EA020321FA04F0E6
:1046900001F0004121FA04F220EA020000EBD3709D
:1046A0005EEA430E08BF20EAD37070BD94F0000F9D
:1046B0000FD101F00046400041EB010111F4801FD1
:1046C00008BF013CF7D041EA060195F0000F18BF82
:1046D000704703F00046520043EB030313F4801FBE
:1046E00008BF013DF7D043EA0603704794EA0C0F78
:1046F0000CEA135518BF95EA0C0F0CD050EA41068E
:1047000018BF52EA4306D1D181EA030101F000410A
:104710004FF0000070BD50EA410606BF1046194632
:1047200052EA430619D094EA0C0F02D150EA01363E
:1047300013D195EA0C0F05D152EA03361CBF10467F
:1047400019460AD181EA030101F0004141F0FE411E
:1047500041F470014FF0000070BD41F0FE4141F4A2
:10476000780170BD70B54FF0FF0C4CF4E06C1CEAA2
:1047700011541DBF1CEA135594EA0C0F95EA0C0F57
:1047800000F0A7F8A4EB050481EA030E52EA033512
:104790004FEA013100F088804FEA03334FF0805533
:1047A00045EA131343EA12634FEA022245EA111560
:1047B00045EA10654FEA00260EF000419D4208BF11
:1047C000964244F1FD0404F5407402D25B084FEABE
:1047D0003202B61A65EB03055B084FEA32024FF46A
:1047E00080104FF4002CB6EB020E75EB030E22BFC7
:1047F000B61A754640EA0C005B084FEA3202B6EB87
:10480000020E75EB030E22BFB61A754640EA5C0035
:104810005B084FEA3202B6EB020E75EB030E22BFC5
:10482000B61A754640EA9C005B084FEA3202B6EBC6
:10483000020E75EB030E22BFB61A754640EADC0085
:1048400055EA060E18D04FEA051545EA16754FEAE7
:1048500006164FEAC30343EA52734FEAC2025FEA05
:104860001C1CC0D111F4801F0BD141EA00014FF094
:1048700000004FF0004CB6E711F4801F04BF014365
:104880000020B4F1FD0C88BFBCF5E06F3FF6AFAE81
:10489000B5EB030C04BFB6EB020C5FEA500C50F111
:1048A000000041EB045170BD0EF0004E4EEA113194
:1048B00014EB5C04C2BFD4EB0C0541EA045170BD9B
:1048C00041F480114FF0000E013C90E645EA060EDF
:1048D0008DE60CEA135594EA0C0F08BF95EA0C0F0D
:1048E0003FF43BAF94EA0C0F0AD150EA01347FF455
:1048F00034AF95EA0C0F7FF425AF104619462CE72C
:1049000095EA0C0F06D152EA03353FF4FDAE10468E
:10491000194622E750EA410618BF52EA43067FF4DF
:10492000C5AE50EA41047FF40DAF52EA43057FF46F
:10493000EBAE12E74FF0FF3C06E000BF4FF0010C7A
:1049400002E000BF4FF0010C4DF804CD4FEA410CDE
:104950007FEA6C5C4FEA430C18BF7FEA6C5C1BD0AB
:1049600001B050EA410C0CBF52EA430C91EA030F2C
:1049700002BF90EA020F0020704710F1000F91EA89
:10498000030F58BF994208BF90422CBFD8176FEA57
:10499000E37040F0010070474FEA410C7FEA6C5C25
:1049A00002D150EA013C07D14FEA430C7FEA6C5C2C
:1049B000D6D152EA033CD3D05DF8040B704700BF58
:1049C0008446104662468C461946634600E000BFA6
:1049D00001B5FFF7B7FF002848BF10F1000F01BD78
:1049E0004DF808EDFFF7F4FF0CBF012000205DF843
:1049F00008FB00BF4DF808EDFFF7EAFF34BF0120C8
:104A000000205DF808FB00BF4DF808EDFFF7E0FF60
:104A100094BF012000205DF808FB00BF4DF808EDB1
:104A2000FFF7CEFF94BF012000205DF808FB00BF18
:104A30004DF808EDFFF7C4FF34BF012000205DF8FA
:104A400008FB00BF4FEA410212F5001215D211D542
:104A50006FF47873B3EB625212D94FEAC12343F07B
:104A6000004343EA505311F0004F23FA02F018BFFD
:104A7000404270474FF00000704750EA013005D1C6
:104A800011F0004008BF6FF0004070474FF0000089
:104A9000704700BF4FEA4102B2F1E04324BFB3F5D3
:104AA000001CDCF1FE5C0DD901F0004C4FEAC002A5
:104AB0004CEA5070B2F1004F40EB830008BF20F089
:104AC0000100704711F0804F21D113F13872BCBF43
:104AD00001F00040704741F480114FEA5252C2F198
:104AE0001802C2F1200C10FA0CF320FA02F018BFE1
:104AF00040F001004FEAC1234FEAD32303FA0CFC34
:104B000040EA0C0023FA02F34FEA4303CCE77FEAC2
:104B1000625307D150EA01331EBF4FF0FE4040F40C
:104B20004000704701F0004040F0FE4040F40000BB
:104B3000704700BF80F0004002E000BF81F00041FC
:104B400042001FBF5FEA410392EA030F7FEA226C33
:104B50007FEA236C6AD04FEA1262D2EB1363C1BFC3
:104B6000D218414048404140B8BF5B42192B88BF32
:104B7000704710F0004F40F4000020F07F4018BF55
:104B8000404211F0004F41F4000121F07F4118BF75
:104B9000494292EA030F3FD0A2F1010241FA03FC1D
:104BA00010EB0C00C3F1200301FA03F100F0004305
:104BB00002D5494260EB4000B0F5000F13D3B0F1CD
:104BC000807F06D340084FEA310102F10102FE2A3C
:104BD00051D2B1F1004F40EBC25008BF20F00100AC
:104BE00040EA03007047490040EB000010F4000F5A
:104BF000A2F10102EDD1B0FA80FCACF1080CB2EBED
:104C00000C0200FA0CF0AABF00EBC250524218434B
:104C1000BCBFD0401843704792F0000F81F40001F0
:104C200006BF80F400000132013BB5E74FEA4103C3
:104C30007FEA226C18BF7FEA236C21D092EA030F2F
:104C400004D092F0000F08BF0846704790EA010FA9
:104C50001CBF0020704712F07F4F04D1400028BFD6
:104C600040F00040704712F100723CBF00F50000B8
:104C7000704700F0004343F0FE4040F400007047EE
:104C80007FEA226216BF08467FEA2363014642029A
:104C900006BF5FEA412390EA010F40F480007047AD
:104CA0004FF0000304E000BF10F0004348BF404253
:104CB0005FEA000C08BF704743F0964301464FF08F
:104CC00000001CE050EA010208BF70474FF00003EB
:104CD0000AE000BF50EA010208BF704711F000432C
:104CE00002D5404261EB41015FEA010C02BF8446FC
:104CF0000146002043F0B64308BFA3F18053A3F55B
:104D00000003BCFA8CF2083AA3EBC25310DB01FAA1
:104D100002FC634400FA02FCC2F12002BCF1004F25
:104D200020FA02F243EB020008BF20F001007047B6
:104D300002F1200201FA02FCC2F1200250EA4C000A
:104D400021FA02F243EB020008BF20EADC70704750
:104D50004FF0FF0C1CEAD0521EBF1CEAD15392EA5E
:104D60000C0F93EA0C0F6FD01A4480EA010C40023A
:104D700018BF5FEA41211ED04FF0006343EA501094
:104D800043EA5111A0FB01310CF00040B1F5000FD6
:104D90003EBF490041EAD3715B0040EA010062F185
:104DA0007F02FD2A1DD8B3F1004F40EBC25008BF6F
:104DB00020F00100704790F0000F0CF0004C08BF8D
:104DC00049024CEA502040EA51207F3AC2BFD2F15A
:104DD000FF0340EAC250704740F400004FF0000368
:104DE000013A5DDC12F1190FDCBF00F000407047A2
:104DF000C2F10002410021FA02F1C2F1200200FAE0
:104E000002FC5FEA310040F1000053EA4C0308BFA6
:104E100020EADC70704792F0000F00F0004C02BFF7
:104E2000400010F4000F013AF9D040EA0C0093F072
:104E3000000F01F0004C02BF490011F4000F013BCC
:104E4000F9D041EA0C018FE70CEAD15392EA0C0F3A
:104E500018BF93EA0C0F0AD030F0004C18BF31F0A5
:104E6000004CD8D180EA010000F00040704790F07B
:104E7000000F17BF90F0004F084691F0000F91F01F
:104E8000004F14D092EA0C0F01D142020FD193EAE5
:104E90000C0F03D14B0218BF084608D180EA01006D
:104EA00000F0004040F0FE4040F40000704740F049
:104EB000FE4040F4400070474FF0FF0C1CEAD05217
:104EC0001EBF1CEAD15392EA0C0F93EA0C0F69D073
:104ED000A2EB030280EA010C49024FEA402037D0DE
:104EE0004FF0805343EA111143EA10130CF00040D5
:104EF0008B4238BF5B0042F17D024FF4000C8B42C5
:104F000024BF5B1A40EA0C00B3EB510F24BFA3EBA4
:104F1000510340EA5C00B3EB910F24BFA3EB910374
:104F200040EA9C00B3EBD10F24BFA3EBD10340EACE
:104F3000DC001B0118BF5FEA1C1CE0D1FD2A3FF614
:104F400050AF8B4240EBC25008BF20F001007047C9
:104F50000CF0004C4CEA50207F32C2BFD2F1FF036C
:104F600040EAC250704740F400004FF00003013A9D
:104F700037E792F0000F00F0004C02BF400010F441
:104F8000000F013AF9D040EA0C0093F0000F01F055
:104F9000004C02BF490011F4000F013BF9D041EA77
:104FA0000C0195E70CEAD15392EA0C0F08D14202AA
:104FB0007FF47DAF93EA0C0F7FF470AF084676E77D
:104FC00093EA0C0F04D14B023FF44CAF08466EE756
:104FD00030F0004C18BF31F0004CCAD130F0004224
:104FE0007FF45CAF31F000437FF43CAF5FE700BF7C
:104FF0004FF0FF3C06E000BF4FF0010C02E000BFA5
:105000004FF0010C4DF804CD4FEA40024FEA410346
:105010007FEA226C18BF7FEA236C11D001B052EAFC
:10502000530C18BF90EA010F58BFB2EB030088BFC2
:10503000C81738BF6FEAE17018BF40F00100704731
:105040007FEA226C02D15FEA402C05D17FEA236C13
:10505000E4D15FEA412CE1D05DF8040B704700BF5A
:10506000844608466146FFE70FB5FFF7C9FF0028F1
:1050700048BF10F1000F0FBD4DF808EDFFF7F4FF2A
:105080000CBF012000205DF808FB00BF4DF808EDC3
:10509000FFF7EAFF34BF012000205DF808FB00BFE6
:1050A0004DF808EDFFF7E0FF94BF012000205DF808
:1050B00008FB00BF4DF808EDFFF7D2FF94BF0120B9
:1050C00000205DF808FB00BF4DF808EDFFF7C8FFB2
:1050D00034BF012000205DF808FB00BF4FEA40020A
:1050E000B2F1FE4F0FD34FF09E03B3EB12620DD916
:1050F0004FEA002343F0004310F0004F23FA02F080
:1051000018BF404270474FF00000704712F1610F26
:1051100001D1420205D110F0004008BF6FF00040FD
:1051200070474FF00000704742000ED2B2F1FE4FC0
:105130000BD34FF09E03B3EB126209D44FEA002366
:1051400043F0004323FA02F070474FF0000070472D
:1051500012F1610F01D1420202D14FF0FF307047CE
:105160004FF00000704700BF73B96AB9002908BF4B
:105170000028BCBF00204FF00041C4BF6FF00041C9
:105180004FF0FF3000F03CB882B0EC462DE9005003
:1051900000F006F8DDF804E002B00CBC704700BF78
:1051A0002DE9F041069C154606460F46984600F04C
:1051B00029F805FB01F300FB0838A5FB0023B21A10
:1051C000434467EB0303C4E90023BDE8F08100BF5B
:1051D0002DE9F041069C904606460F461D4600F01C
:1051E0005FF900FB05F5A0FB082308FB0155B21A87
:1051F0002B4467EB0303C4E90023BDE8F08100BF43
:10520000704700BF00292DE9F043C0F2A6800026B8
:10521000002BC0F29C80884694469E461546044664
:105220000F46002B3DD18A4259D9B2FA82F33BB1E5
:10523000C3F120029F4020FA02F29D4017439C4098
:10524000290C220CB7FBF1FEA8B201FB1E7742EA43
:10525000074700FB0EF3BB420AD97F190EF1FF325C
:1052600080F00581BB4240F20281AEF1020E2F4474
:10527000FF1AA4B2B7FBF1F301FB137744EA074727
:1052800000FB03F0B84208D97F1903F1FF3280F028
:10529000F080B84240F2ED80023B43EA0E43002228
:1052A00003E08B420FD900221346341C18BF01249F
:1052B00060424FF0000565EB450158405140001930
:1052C0006941BDE8F083B3FA83F2002A40F086809A
:1052D0008B4202D3844500F2DB800123E5E712B95B
:1052E0000123B3FBF2F5B5FA85F000283BD1781B1A
:1052F0004FEA154E1FFA85FC0122B0FBFEF8210C87
:105300000EFB180741EA07470CFB08F3BB4207D91D
:105310007F1908F1FF3102D2BB4200F2BD808846FE
:10532000FF1AA4B2B7FBFEF30EFB137744EA07475C
:105330000CFB03FCBC4507D97F1903F1FF3102D2F6
:10534000BC4500F2A7800B4643EA0843ADE7524252
:105350006FEA060663EB43035DE7404261EB410100
:105360004FF0FF3654E7C0F1200224FA02F107FAA9
:1053700000F385404FEA154ED7401943B7FBFEF2C4
:105380000B0C0EFB12771FFA85FC43EA07430CFB5C
:1053900002F79F4204FA00F407D95B1902F1FF30CB
:1053A00074D29F4272D9023A2B44DF1B89B2B7FBF9
:1053B000FEF80EFB187341EA03430CFB08F79F420B
:1053C00008D95B1908F1FF315CD29F425AD9A8F184
:1053D00002082B44D81B48EA02428EE7C2F12003A0
:1053E0002CFA03F10EFA02FE20FA03F741EA0E0E40
:1053F00008FA02F028FA03F14FEA1E453843B1FBE0
:10540000F5F8030C05FB18111FFA8EF743EA01416A
:1054100007FB08F38B420CFA02FC09D911EB0E01D1
:1054200008F1FF3930D28B422ED9A8F1020871441D
:10543000C91A80B2B1FBF5F305FB131140EA014133
:1054400007FB03F78F4208D911EB0E0103F1FF3080
:1054500016D28F4214D9023B714443EA0843C91B58
:10546000A3FB0C89494509D305D000221DE79646C8
:10547000FEE6134611E794404445F6D2013BF4E7BB
:105480000346EAE78846A5E7C846D1E702468CE727
:1054900013460AE7023B57E7A8F102082F443FE70B
:1054A0002DE9F041002B44D18A42154604464FD9DC
:1054B000B2FA82F70E464FB1C7F12003B94020FA85
:1054C00003F602FA07F50E4300FA07F44FEA154E09
:1054D000230CB6FBFEF0AFB20EFB106143EA0143B2
:1054E00007FB00F1994209D95B1900F1FF3280F006
:1054F000EC80994240F2E98002382B445A1AA4B257
:10550000B2FBFEF30EFB132244EA024207FB03F751
:10551000974208D9521903F1FF3180F0D8809742A1
:1055200040F2D580023B43EA004000263146BDE808
:10553000F0818B4247D8B3FA83F6002E48D18B42D4
:1055400002D3824200F2CD8001203146BDE8F081D5
:1055500012B90125B5FBF2F5B5FA85F8B8F1000FDF
:1055600077D14A1B4FEA154EAFB20126B2FBFEF0CF
:10557000230C0EFB102143EA014107FB00F38B4291
:1055800007D9491900F1FF3202D28B4200F2BA80EA
:105590001046C91AA4B2B1FBFEF30EFB131144EA84
:1055A000014407FB03F7A74208D9641903F1FF324E
:1055B00080F08F80A74240F28C80023B43EA00409B
:1055C0003146BDE8F081002630463146BDE8F08125
:1055D000C6F1200422FA04F5B3402B4320FA04FC60
:1055E00001FA06F721FA04F54FEA134E4CEA0707D1
:1055F000B5FBFEF8390C0EFB18551FFA83FC41EA87
:1056000005450CFB08F1A94202FA06F204D9ED188F
:1056100008F1FF3467D3A0466D1ABFB2B5FBFEF4A4
:105620000EFB145547EA05410CFB04FC8C4504D9DC
:10563000C91804F1FF355CD32C4644EA0844CCEB8E
:105640000101A4FB0223994248D344D020460026FE
:105650006CE7C8F1200401FA08F305FA08F520FA0E
:1056600004F7E1404FEA154E1F43B1FBFEF63A0C3A
:105670000EFB16111FFA85FC42EA01430CFB06F2F1
:105680009A4200FA08F407D95B1906F1FF3137D2C4
:105690009A4235D9023E2B449B1ABFB2B3FBFEF0AF
:1056A0000EFB103347EA03430CFB00F1994207D984
:1056B0005B1900F1FF3221D299421FD902382B44E5
:1056C0005A1A40EA0646674650E7104616E70B4668
:1056D00029E7134672E7B0409042B7D2601E002619
:1056E00024E7304622E7A94295D9A8F102081D44D3
:1056F00092E78C45A0D9023C19449EE71046DFE7AB
:105700000E46C9E70238294443E700BF844641EA10
:10571000000313F003036DD1403A41D351F8043B29
:1057200040F8043B51F8043B40F8043B51F8043B7B
:1057300040F8043B51F8043B40F8043B51F8043B6B
:1057400040F8043B51F8043B40F8043B51F8043B5B
:1057500040F8043B51F8043B40F8043B51F8043B4B
:1057600040F8043B51F8043B40F8043B51F8043B3B
:1057700040F8043B51F8043B40F8043B51F8043B2B
:1057800040F8043B51F8043B40F8043B51F8043B1B
:1057900040F8043B51F8043B40F8043B403ABDD28A
:1057A000303211D351F8043B40F8043B51F8043B2C
:1057B00040F8043B51F8043B40F8043B51F8043BEB
:1057C00040F8043B103AEDD20C3205D351F8043BBB
:1057D00040F8043B043AF9D2043208D0D2071CBF87
:1057E00011F8013B00F8013B01D30B8803806046B0
:1057F000704700BF082A13D38B078DD010F0030326
:105800008AD0C3F10403D21ADB071CBF11F8013B95
:1058100000F8013B80D331F8023B20F8023B7BE7E4
:10582000043AD9D3013A11F8013B00F8013BF9D20F
:105830000B7803704B7843708B78837060467047A9
:10584000A2EB0300704700BF02780B78012A28BF43
:105850009A42F5D16DE9044540EA0104CDE90267B9
:105860006FF0000C4FEA447212B380EA010414F0A6
:10587000070F6AD100F0070420F0070004F00305C9
:1058800021F007014FEAC505F0E8042314F0040FE6
:10589000F1E804670CFA05F462EA040266EA040619
:1058A0000AD063EA0403624667EA0407664603E037
:1058B000F0E80423F1E8046782FA4CF582EA060472
:1058C000A4FA8CF46CBB83FA4CF583EA0705A5FABD
:1058D0008CF595B950E9022351E9026782FA4CF53B
:1058E00082EA0604A4FA8CF483FA4CF583EA0705ED
:1058F000A5FA8CF52543DBD09CB92DBAB5FA85F411
:1059000024F0070427FA04F1DDE9026723FA04F31F
:1059100003F0FF0001F0FF01FDE80445A0EB0100EA
:10592000704724BAB4FA84F424F0070426FA04F188
:10593000DDE9026722FA04F202F0FF0001F0FF0144
:10594000FDE80445A0EB0100704714F0030F3CD1C3
:1059500010F0030428D150F8082B51F8083B82FAC4
:105960004CF582EA0305A5FA8CF55DB950F8042CD4
:1059700051F8043C82FA4CF582EA0305A5FA8CF54D
:10598000002DE8D02DBAB5FA85F424F0070423FAE7
:1059900004F122FA04F202F0FF0001F0FF01FDE839
:1059A0000445A0EB010070474FEAC40420F0030057
:1059B00050F8082B21F0030151F8083B0CFA04F4CD
:1059C00062EA040263EA0403C9E710F003041AD090
:1059D000A1EB040120F00300E40750F8042B06D0EB
:1059E0000FD28B785FFAA2F4E41A06D12BB1CB78F0
:1059F0005FFAB2F4E41A00D11BB920465DF8104BEF
:105A0000704701F1040150F8042BCC0721F0030189
:105A100051F8043B48D824D222F07F4482FA4CF556
:105A200094EA1325A5FA8CF50AD165B951F8043B1F
:105A300084EA0204B4EB036F0ED150F8042BEBE7B9
:105A40004FEA132355E035F07F454DD10878FDE846
:105A50000445C0F1000070474FEA126203F0FF03F3
:105A600047E002EA1C4482FA4CF594EA1345A5FA91
:105A70008CF50AD165B951F8043B84EA0204B4EB11
:105A8000034F0CD150F8042BEBE74FEA134330E0FF
:105A900015EA1C4528D10B884FEA124229E04FEA4B
:105AA000124203EA1C4324E002F0FF0482FA4CF5A0
:105AB00094EA1365A5FA8CF50AD165B951F8043B4F
:105AC00084EA0204B4EB032F09D150F8042BEBE76E
:105AD0004FEA13630DE015F0FF0F05D10B684FEA95
:105AE000122223F07F4304E04FF00000FDE804455C
:105AF000704712BA1BBA82FA4CF482EA0304A4FA81
:105B00008CF5B5FA85F402FA04F203FA04F34FEACD
:105B10001260FDE80445A0EB13607047AFF300800E
:105B2000002103E00A4B5B584350043109480A4BFB
:105B300042189A42F6D3094A02E0002342F8043B95
:105B4000074B9A42F9D300F00FF804F02FFC70478E
:105B50009C5C01080000002038040020380400206C
:105B60001C6C0020FEE70000314B1A68002142F057
:105B700001021A6099601A6822F0847222F480325D
:105B80001A602C4A5A601A6882B022F480221A6085
:105B9000D960009101911A6842F480321A60244B56
:105BA0001A6802F400320192009A01320092019ABE
:105BB0001AB9009AB2F5A04FF1D11B6813F4003363
:105BC00018BF01230193019B012B2FD1184B1A49B8
:105BD0001A6C42F080521A640A6842F440420A6029
:105BE0009A689A609A6842F400429A609A6842F40D
:105BF000A0529A60114A5A601A6842F080721A6084
:105C000019680B4A8901FBD50D4B40F205711960EB
:105C1000936823F003039360936843F00203936057
:105C2000034B9B6803F00C03082BF9D102B07047BB
:105C30000038024010300024007000400854400733
:105C4000003C024000F108034FF0FF3282604360E5
:105C5000C360036100230360704700230361704742
:105C600043685A684A6042688A605A68916059601D
:105C70004160086103680133036070470A68531C80
:105C800010B501D1036907E000F108035C682468DE
:105C9000944201D85B68F9E75A684A6091608B606A
:105CA0005960086103680133036010BD436882686E
:105CB0009A60836842685A6003695A68824204BFE6
:105CC00082685A60002202611A68013A1A601868F4
:105CD000704708B508F0ECF8FCE7000010B50E4B73
:105CE0001A6850600D4A12689042044607D20C4A66
:105CF00010681968BDE810400431FFF7BFBF094ABA
:105D0000106819680431FFF7B9FF074B1A6894420D
:105D100038BF1C6010BD00BF1C05002034050020EA
:105D20003805002040040020000000200B4B1B68B9
:105D300000230B4A126893420AD20A4A52F82320DF
:105D4000126B013A12F8011FBE29FBD00133F0E7B4
:105D5000054B1868054B1B68184470471C0500204C
:105D60004C050020DC04002018050020440500201C
:105D70002DE9F74F0C9EDDF838B08A461546994656
:105D8000804628B96B486C4940F227220AF066FD2C
:105D9000042E05D9694868494FF40A720AF05EFD7D
:105DA0004C2001F0CBF8664A13684C33136004466C
:105DB000D0B1AF00BBF1000F03D1384601F0BEF8FF
:105DC00083466049C4F830B00B683B440B60BBF1BC
:105DD000000F04D1204601F00BF95C4604E0584660
:105DE000BE213A460EF000F9574A13682B4413605F
:105DF00044B9564850494FF40C720AF02FFD4FF049
:105E0000FF3093E005F1804BAD00013D2564504D1E
:105E1000236B29684F4A0BF1FF3B03EB8B0342F8DE
:105E2000214004F1340051460A2223F0070B0EF002
:105E300057F9042E33464FF0000728BF042304F11E
:105E4000040AE3626364504684F83D700193FFF7EF
:105E500004FF04F11800FFF700FF019B2461C3F168
:105E60000503A3616462A764584641464A4601F0AF
:105E7000E5F84307206005D037482F4940F27222E9
:105E80000AF0ECFC0D9B03B11C6001F003F92B68D8
:105E9000DFF8EC8001332B60304D2F68EFB92C4BCD
:105EA0002C601B68012B20D108EB07001437FFF78B
:105EB000C9FE642FF8D1DFF8CC90294F4846FFF790
:105EC000C1FE3846FFF7BEFE2648FFF7BBFE264B55
:105ED000C3F80090254B1F6007E0254B1B6823B9D2
:105EE0002B68DB6AB34298BF2C60224AE36A1168D0
:105EF0008B42214988BF13600A6801320A601F4A39
:105F0000116814208B4200FB0380514688BF136048
:105F1000FFF7A6FE01F0CCF8154B1B682BB12B68E0
:105F2000DB6AB34201D201F0A5F8012003B0BDE85D
:105F3000F08F00BF624101086D41010882410108F4
:105F4000180500204405002074040020C541010804
:105F50004C050020DC040020CE4101081C05002077
:105F600060040020200500204004002038050020A7
:105F70004404002050050020400500203C0500207E
:105F8000780400204C04002030B585B00024009433
:105F90000194029403941248124964222346FFF7A5
:105FA000E7FE012805460FD100F036FE0128054620
:105FB0000AD101F067F80C4B1D600C4B1C6005B05A
:105FC000BDE8304001F0B8B845B90948094940F288
:105FD0004A5205B0BDE830400AF040BC05B030BDC3
:105FE000D35C00083242010844040020340500203C
:105FF000374201086D410108024A136801331360FA
:10600000704700BF4804002010B501F043F8034B6F
:106010001C6801F04DF8204610BD00BF340500207B
:10602000F8B52E4B1B68002B52D12D4B2D4D1A6805
:1060300001321A601A681E46F2B92B4C23681B689D
:106040002BB12A482A4940F2B6620AF007FC294BD4
:106050002268196821601A60274A136801331360A7
:1060600023681B6813B94FF0FF3304E01E4B1B6815
:10607000DB68DB685B682B6032682B689A422BD345
:10608000194B1A68126812B94FF0FF3306E01B680B
:10609000DB68DC68326863689A4201D22B60F8BD25
:1060A000271D3846FFF702FEA36A1BB104F1180052
:1060B000FFF7FCFD114AE36A11688B4288BF136049
:1060C0000F4A142000FB03203946FFF7C9FDD7E72C
:1060D0000C4A136801331360F8BD00BF4804002068
:1060E0003405002000000020400400203F42010849
:1060F0006D410108380500203C0400203C050020CB
:10610000780400203804002070B52B4C23682BB98C
:106110002A482B4940F285520AF0A0FB00F0BAFF52
:106120002368013B236024680CB1002440E0254B28
:106130001B68002BF9D0244B1A68F2B1DB68DD68CC
:106140002E1D05F11800FFF7B1FD3046FFF7AEFD3B
:106150001E4AEB6A11688B4288BF13601C4A1420E8
:1061600000FB03203146FFF77BFD1A4BEA6A1B68F0
:10617000DB6A9A4228BF0124DDE7174B1A681D46E7
:1061800042B12B68144C3BB1FFF74AFF2368013B37
:106190002360F6E7012C06D1104B00221A6001247F
:1061A00000F068FF04E00D4B1B68012BBDD1F3E745
:1061B00000F07EFF204670BD480400206A420108BE
:1061C0006D4101084C050020200500203C05002001
:1061D000780400201C050020380400204805002019
:1061E00038B50C46054628B91A481B494FF4447285
:1061F0000AF034FB2CB91948174940F211320AF061
:106200002DFBFFF7F9FE164A2B68116899421C44D2
:1062100002D29C4208D201E09C4207D313689C4200
:1062200094BF0023012302E0002300E001232C603F
:106230003BB10C4B18680430FFF738FD2046FFF7E0
:106240004DFDFFF761FF18B9BDE8384000F012BFFF
:1062500038BD00BF7F4201086D410108924201082C
:10626000340500201C05002010B5044618B9BDE80F
:10627000104000F0FFBEFFF7BFFE084B1B681C4438
:10628000074B18680430FFF711FD2046FFF726FD85
:10629000FFF73AFF0028EAD010BD00BF3405002008
:1062A0001C05002038B50D46044608B9044B1C688F
:1062B00000F0F0FEA564BDE8384000F0F9BE00BF74
:1062C0001C05002038B51D4B1B681BB11C4B01225F
:1062D0001A6038BD1B4C2268236812681B6B9A42F7
:1062E00010D820682168343106F032FC0AE02B68AF
:1062F0002BB91548154940F266720AF0AFFA2B68BF
:10630000013B2B60124D134A2968142359435158FD
:106310000029ECD029684B43D018083345686D68D4
:10632000456013449D4204BF6B684360142303FB24
:1063300001225368DB68236038BD00BF4804002099
:10634000480500201C050020AA4201086D410108F3
:106350003C0500207804002070B50E46054628B99B
:106360000B480C4940F271720AF078FA0A4C216825
:1063700028461831FFF782FC20680430FFF796FCAE
:10638000064B18683044BDE87040FFF7A7BC00BF5B
:10639000BD4201086D4101081C05002034050020A4
:1063A00070B50E46054628B90B480C4940F2A77255
:1063B0000AF054FA0A4C216828461831FFF750FCBD
:1063C00020680430FFF772FC064B18683044BDE8C3
:1063D0007040FFF783BC00BFBD4201086D4101085A
:1063E0001C0500203405002038B5C368DC682CB9D2
:1063F0001448154940F2DD720AF030FA04F118052C
:106400002846FFF753FC114B1B6873B9251D28461E
:10641000FFF74CFC0E4AE36A11688B4288BF136099
:106420000C4A142000FB032000E00B482946FFF72C
:1064300017FC0A4BE06A1B68DB6A984234BF0020F5
:10644000012038BDC94201086D41010848040020FF
:106450003C05002078040020200500201C050020B9
:1064600010B5044628B90648064940F2FF720AF002
:10647000F5F9054B1B682360044B1B68636010BD76
:10648000D84201086D4101083C0400203405002079
:1064900038B50D46044628B91648174940F6090292
:1064A0000AF0DCF92DB91548134940F60A020AF042
:1064B000D5F900F0EFFD124B61681A6823689A4223
:1064C000104B02D01A688A420ED21A682B68521AF0
:1064D0009A4209D20B4A1268521A9B1A20462B6024
:1064E000FFF7BEFF002400E0012400F0E1FD20469C
:1064F00038BD00BFD84201086D410108E2420108E1
:106500003C04002034050020014B01221A60704732
:1065100048050020014B1868704700BF1C0500208B
:10652000044B186828B1044B1B68002B0CBF0120DA
:10653000022070474404002048040020F8B50446B7
:1065400048B3154DC36A2A68D26A934223D22A6897
:10655000D26AC2F1050282611048142202FB0303D1
:1065600062699A42064613D1271D3846FFF79EFB03
:106570002B680B4ADB6A1168E3628B4288BF1360A9
:10658000142000FB03603946BDE8F840FFF768BB04
:106590002B68DB6AE362F8BD1C050020780400204C
:1065A0003C05002038B50446D0B1C26A436C9A421B
:1065B00016D0051D2846FFF779FB636CE362C3F133
:1065C0000502A261074A11688B4288BF1360064A20
:1065D000142000FB03202946BDE83840FFF740BBEC
:1065E00038BD00BF3C0500207804002038B51346B4
:1065F000026C044632B9056805BB4068FFF7D2FF5C
:1066000065601BE063B98068FFF780F8A268236CBF
:1066100013446268A360934210D32368A3600DE023
:10662000C068FFF773F8236CE26821685B421A4484
:106630008A42E2603EBF62689B18E360A36B01334D
:10664000A36338BD30B5056803466DB1C468026CFC
:106650001444C4604068844228BFDD600846BDE839
:106660003040D968FFF752B830BD10B5044600F08D
:1066700011FDA36C002B0CDD636A53B104F12400FF
:10668000FFF7B2FE08B1FFF73FFFA36C013BA36425
:10669000EFE74FF0FF33A36400F00AFD00F0FAFCCF
:1066A000636C002B0CDD236953B104F11000FFF77C
:1066B0009BFE08B1FFF728FF636C013B6364EFE7C3
:1066C0004FF0FF336364BDE8104000F0F1BC000000
:1066D00038B50D46044620B917481849F1220AF08A
:1066E000BDF800F0D7FC216CE36B2268A2604B433D
:1066F000D0185B1A13446060E36000204FF0FF3352
:10670000A0636364A36455B9236983B104F11000E5
:10671000FFF76AFE01280AD100F0ACFC07E004F1A3
:106720001000FFF78FFA04F12400FFF78BFA00F056
:10673000BFFC012038BD00BFF0420108F84201084B
:1067400070B50E460546A8B14C2000F0F7FB044694
:1067500080B106FB05F0013000F0F0FB206030B1A5
:10676000E563266420460121FFF7B2FF09E02046D9
:1067700000F03EFC044805494FF4A7720AF06EF899
:106780000024204670BD00BF37420108F8420108CE
:106790002DE9FF410E4601929846044628B9394832
:1067A000394940F231220AF059F816B9236C002B0E
:1067B0005ED1002700F06EFCA26BE36B9A4212D20E
:1067C000204631464246FFF711FF636A3BB104F1B0
:1067D0002400FFF709FE012801D100F04BFC00F076
:1067E00067FC01204BE0019D15B900F061FC3DE024
:1067F00017B902A8FFF734FE00F05AFCFFF7FCFBC4
:1068000000F048FC636C013304BF00236364A36C95
:10681000013304BF0023A36400F04AFC02A801A9CD
:10682000FFF736FEE8B900F035FCA76BE56B00F02A
:106830003FFCAF420FD104F110000199FFF78CFD2E
:106840002046FFF712FFFFF75FFC08B10127B1E711
:1068500000F010FCFAE72046FFF707FFFFF754FCB3
:10686000F4E72046FFF701FFFFF74EFC002006E0AB
:106870000648054940F2322209F0F0FF99E704B0DA
:10688000BDE8F081F0420108F84201080D4301081B
:1068900038B54C2000F052FB0446D0B1012300254E
:1068A000C3634FF0FF3385634560436405608364D1
:1068B0008560C56005641030FFF7C4F904F1240059
:1068C000FFF7C0F9204629462A462B46FFF760FF0E
:1068D00005E0044804494FF4C77209F0BFFF2046A1
:1068E00038BD00BF68430108F84201082DE9F041B6
:1068F0000D4616469846044628B91B481B4940F2E7
:106900009F3209F0ABFF0DB9236C03BB00F0BAFB5B
:10691000A26BE36B9A42074617D2204629464246AD
:10692000FFF764FEA36C01330AD1636A5BB104F123
:106930002400FFF759FD30B12EB1012434600DE081
:10694000A36C0133A364012408E0002406E0084896
:1069500006494FF4687209F081FFD7E7384600F026
:10696000A3FB2046BDE8F081F0420108F84201088F
:106970000D4301082DE9FF410E4601929846044659
:1069800028B9464846494FF4806209F067FF16B9B6
:10699000236C002B78D1002700F07CFBA36B3BB36A
:1069A00020463146E568FFF74DFEB8F1000F12D1E1
:1069B000A36B013BA363236813B9FFF7ABFD6060D2
:1069C00023698BB104F11000FFF70EFD01280BD1F4
:1069D00000F050FB08E0636AE5602BB104F124008D
:1069E000FFF702FD0028F3D100F062FB012052E026
:1069F000019D15B900F05CFB44E017B902A8FFF750
:106A00002FFD00F055FBFFF7F7FA00F043FB636C36
:106A1000013304BF00236364A36C013304BF00236C
:106A2000A36400F045FB02A801A9FFF731FD20BBDC
:106A300000F030FBA56B00F03BFBC5B9236833B910
:106A400000F028FB6068FFF779FD00F031FB04F1EE
:106A500024000199FFF780FC2046FFF706FEFFF7B0
:106A600053FB08B1012797E700F004FBFAE7204643
:106A7000FFF7FBFDFFF748FBF4E72046FFF7F5FDC6
:106A8000FFF742FB002006E00648054940F20142BC
:106A900009F0E4FE7FE704B0BDE8F081F0420108B0
:106AA000F842010873430108F8B50E46174604463C
:106AB00028B91B481B4940F2964209F0CFFE0EB997
:106AC000236C03BB00F0DEFAA36B0546CBB1204676
:106AD0003146FFF7B7FDA36B013BA363636C013342
:106AE0000AD123695BB104F11000FFF77DFC30B1DE
:106AF0002FB101243C600DE0636C01336364012419
:106B000008E01C4606E00848064940F2974209F0B2
:106B1000A5FED7E7284600F0C7FA2046F8BD00BF1B
:106B2000F0420108F84201087343010810B5044619
:106B300028B90648064940F2CE4209F08FFE00F01F
:106B4000A9FAA46B00F0B4FA204610BDF142010886
:106B5000F842010838B504460D4600F09BFA636C14
:106B6000013304BF00236364A36C013304BF00231B
:106B7000A36400F09DFAA36B23B904F12400294615
:106B8000FFF70EFC2046BDE83840FFF76EBD000061
:106B9000F8B50D4C00F07EFA25688DB90B4F0C4E00
:106BA0003846FFF74FF83046FFF74CF8094B1F60A7
:106BB000094B14200C212A461E60FFF7C1FD2060FE
:106BC000BDE8F84000F074BA8405002058050020A4
:106BD0006C050020540500208805002010B50446EF
:106BE00091424160206105D8D21A83699A420CD241
:106BF000074B04E09A4201D2994206D2054B18682D
:106C0000211DFFF73BF8002010BD012010BD00BF83
:106C100088050020540500201FB5FFF7B9FF0D4B74
:106C20001B6833B90C480D49DD2209F017FE00201E
:106C30000CE001230093002301930293039308487F
:106C400008496422FFF794F80028EBD005B05DF8FE
:106C500004FB00BF8405002037420108C943010836
:106C6000716D0008DF4301082DE9F04180461746A9
:106C70001E460D4631B90D480D49EA2209F0EEFDD8
:106C80002C4610E0282000F059F9044658B1FFF7CF
:106C90007FFF069BC4F80080A561E76126626362FE
:106CA000201DFEF7DAFF2046BDE8F081E74301082A
:106CB000C94301087FB50F4D064628681C46B8B188
:106CC00001910292039673B9FFF72AFC012818BFBD
:106CD0002246286808BF089A01A90CBF234613461C
:106CE000FFF756FD04E01A4601A90023FFF7FEFD59
:106CF00004B070BD84050020F7B5194D2B681A68E3
:106D000042B3DA681668DB68DC68271D3846FEF790
:106D1000CDFF636A20469847E369012BEDD1A36953
:106D20003344B34206D96360246128683946FEF7CC
:106D3000A5FFE2E700210091204632460B46FFF70F
:106D4000B9FF0028D9D10748074940F2762209F057
:106D500085FDD2E7054A11682960136003B0F0BDD4
:106D60005405002003440108C94301088805002098
:106D70002DE9F04786B0DFF870A1DAF800301C6822
:106D8000B4FA84F4640914B9DB681E6800E00026D4
:106D9000504DFFF731F9FFF737F92B6898428146DC
:106DA000A84603D2FFF7A8FF012300E00023C5F89F
:106DB0000090494FA3BB44BB4E4526D8FFF7A4F92A
:106DC000DAF80030DB68DD68281DFEF76FFFEB693D
:106DD000012B16D1A969284631444A463346FFF7AC
:106DE000FDFE01280DD10094284621463246234657
:106DF000FFF760FF28B93948394940F2551209F0C8
:106E00002DFD6B6A2846984724E03868C9EB0601D7
:106E1000FFF7A0FEFFF778F9E0B900F02BF919E0D1
:106E2000FFF772F916E0059C636913B1201DFEF7A8
:106E30003DFFFFF7E9F8D8F800309842054601D247
:106E4000FFF75AFF039EC8F80050022E2CD0032EE5
:106E50003BD046B10022386803A91346FFF78AFDEC
:106E60000028E0D187E7049BA169204619442A46FF
:106E7000FFF7B4FE0128EDD1636A20469847E36925
:106E8000012BE7D1A269049B00961A4420463146A3
:106E90003346FFF70FFF0028DCD11048104940F2BD
:106EA0002A2209F0DBFCD5E7049BA3612BB90D482E
:106EB0000B4940F2372209F0D1FCA1692046294450
:106EC0002A462B46FFF78AFEC4E7204600F090F8DA
:106ED000C0E700BF800500208405002003440108AE
:106EE000C94301080B44010854050020006A70479B
:106EF00010B5104B1A68824201D21346FAE759685E
:106F00005C18844201BF40680918184659604168FE
:106F10004418944209D1084C2468A2421FBF526809
:106F2000891841601A6818BF12680260834218BF4E
:106F3000186010BD900500208C05002070B5044637
:106F4000FFF75AF8264A106898B9264B264923F0CD
:106F500007030B60486003F59C41083144F608655F
:106F600048601160585183E8220020490B68103BAB
:106F70000B602CB1103463071CBF24F007040834E5
:106F8000611E44F61663994222D8174B1D68696842
:106F9000A14203D31268954206D119E0296800295D
:106FA000F8D02B460D46F2E72A681E681A606B6817
:106FB0001B1B202B06F1100604D9281943606C60B6
:106FC000FFF796FF094A696813685B1A136000E0CF
:106FD0000026FFF799F80EB905F0A6FD304670BD02
:106FE0008C050020A0050020900500200400002052
:106FF00010B5044678B1FEF7FFFF074A54F80C1CA1
:107000001368A4F110000B441360FFF771FFBDE893
:107010001040FFF779B810BD04000020014B18683C
:10702000704700BF0400002003480068006880F338
:10703000088862B600DF00BF08ED00E04FF0807303
:1070400000E90A00002340F80C3C40F8202C4038AE
:1070500070470000064B19680868B0E8F00F80F32D
:1070600009884FF0000080F311884EF00D0E704734
:107070001C050020024B4FF080521A60704700BF81
:1070800004ED00E0EFF311804FF05F0181F3118810
:107090007047002008B5FFF7F5FF024A1368013377
:1070A000136008BD0800002080F3118870470000BD
:1070B000034B18680138186008B9FFF7F5BF70472F
:1070C00008000020EFF309800C4B1A6820E9F00F4C
:1070D00010602DE908404FF05F0080F31188FFF742
:1070E000F1F84FF0000080F31188BDE808401968FE
:1070F0000868B0E8F00F80F3098870471C0500208D
:1071000008B5064B4FF080521A60FFF7BBFFFEF741
:1071100087FF0020BDE80840FFF7C6BF04ED00E090
:10712000034B044A1A60072243F8042C704700BF3F
:1071300014E000E03F90020010B5094B1A6842F4D9
:107140007F021A601A6842F07F421A60FFF7E8FF78
:10715000044B00241C60FFF767FF204610BD00BFF2
:1071600020ED00E008000020044BDA6809B110436C
:1071700001E022EA0000D860704700BF002004E070
:10718000036823F00103036000230360436083600E
:10719000C360036121234361294B984217D0294BD7
:1071A00098421BD0284B984220D0284B984225D09B
:1071B000274B98422AD0274B98422ED0264B9842F4
:1071C00032D0264B984236D0254B984203D13D22EF
:1071D00043F8082C7047234B984204D14FF4746253
:1071E00043F8202C7047204B984204D14FF474127E
:1071F00043F8382C70471D4B984204D14FF074620D
:1072000043F8502C70471A4B984203D1194A43F85F
:10721000642C7047184B984203D1184A43F87C2CD1
:107220007047174B984203D1164A43F8942C704785
:10723000154B984203D14FF03D5243F8AC2C7047A8
:1072400010600240286002404060024058600240E6
:107250007060024088600240A0600240B860024056
:1072600010640240286402404064024058640240B6
:10727000706402403D00002088640240400F0020FE
:10728000A064024000003D20B86402400268134B35
:1072900010B51340CC680A6814434A6914438A69DC
:1072A0001443CA6914430A6A14434A6A14438A6A33
:1072B00014434A6B14438A6B2243134303604369AC
:1072C0000C6B23F00702CB6A2343134343610B6922
:1072D00043604B6883608B68C36010BD3F801CF0C7
:1072E000036811B143F0010301E023F001030360DF
:1072F000704741607047406880B27047006800F096
:10730000010070470B0611D543694AB143F0800371
:107310008029436114D0036801F01E0119430EE077
:1073200023F080038029436104D17047802907D06E
:10733000002AF0D1036801F01E0123EA0101016077
:1073400070470000104A114B10B5114CA04294BF79
:107350001C46144621F0F02323F0C3122AB1006822
:1073600000F01E0000EAD12202E0406900F0800235
:1073700089004CBF6068206823F08213184002D057
:10738000101C18BF012010BD0064024000600240C4
:107390000F64024010B5084A084B094CA04294BF44
:1073A0001846104611F0005F21F0F02121F0821103
:1073B00014BFC160816010BD0064024000600240E3
:1073C0000F640240837910B50468002B31D01E4B46
:1073D000196821EA04021A605A68016822EA010267
:1073E0005A600279016802F1804202F59E32146807
:1073F000214311609A68016822EA01029A60DA6802
:10740000016822EA0102DA6042790168102A0BBFA2
:107410009A6802F18043114303F59E3303BF9960DC
:10742000D96802681A680BBF0A431143DA60196011
:1074300010BD037903F1804303F59E331A6822EAF5
:1074400004021A6010BD00BF003C0140014B5861AE
:10745000704700BF003C0140034B5B69184214BFFA
:1074600001200020704700BF003C0140014B5861E3
:10747000704700BF003C0140F0B5002201230C68BA
:1074800093401C409C4229D1550003230668AB4021
:10749000DB431E4006600E790768AE403E4306603F
:1074A0000E79013E012E11D886681E4086604E7905
:1074B0008768AE403E438660466826EA040444601E
:1074C0008C7946689440A4B234434460C468234035
:1074D000C360CB79C468AB402343C3600132102A38
:1074E000CCD1F0BD0369194214BF012000207047C0
:1074F000018370474183704710B501F00703C90845
:1075000000EB81009B00046A0F21994024EA0101ED
:107510000162016A9A401143016210BD7FB58688FD
:1075200026F03F060446360468460D46360C00F049
:107530005FF8029A2C48B2FBF0F081B20E43A680AD
:1075400023882A4E23F001031B041B0C23802B6885
:10755000B3420AD85B000131B2FBF3F39BB2032BB9
:1075600089B298BF0423218423E0EE884BF6FF7193
:107570008E421BBF19214B4303EB4303B2FBF3F3D2
:1075800015BF9BB2B2FBF3F343F480439BB2C3F34A
:107590000B020AB943F001034FF4967101FB00F2AC
:1075A0004FF47A7192FBF1F2013292B243F400434C
:1075B0002284A38323889BB243F001032380238882
:1075C0006989AA8823F4816323F002031B040A4318
:1075D0001B0C13439BB223802A89AB8913439BB2B4
:1075E000238104B070BD00BF40420F00A08601009F
:1075F00010B51D4A936803F00C03042B03D0082B2D
:1076000003D01A4B18E01A4B16E05168536811F476
:10761000800F03F03F03516814BF154A134AB2FBB1
:10762000F3F3114A5268C2F30142C1F388110132E7
:107630004B435200B3FBF2F30B4A036093680D49CE
:10764000C3F30313CC5C0368E34043609468C4F362
:1076500082240C5D23FA04F484609268C2F34232FF
:107660008A5CD340C36010BD003802400024F4009F
:1076700000127A000C000020044B1A6B09B1104371
:1076800001E022EA00001863704700BF00380240A2
:10769000044B5A6B09B1104301E022EA0000586321
:1076A000704700BF00380240044B1A6C09B1104308
:1076B00001E022EA00001864704700BF0038024071
:1076C000044B5A6C09B1104301E022EA00005864EF
:1076D000704700BF00380240044B1A6A09B11043DA
:1076E00001E022EA00001862704700BF0038024043
:1076F0001C4A038890429BB212D002F580629042ED
:107700000ED0B0F1804F0BD0A2F58032904207D05E
:1077100002F58062904203D002F58062904203D16C
:107720004A8823F0700313430F4A904208D002F5B1
:10773000806290421FBF23F440730A899BB21343B7
:1077400003804B68C3620B880385064B984203D0C5
:1077500003F58063984201D18B7A038601238382EB
:10776000704700BF0000014000100040038819B1BD
:107770009BB243F0010303E023F001031B041B0C45
:1077800003807047038C23F001031B041B0C03844C
:10779000038C70B58488028B0E8822F07302120469
:1077A000120C23F0020516434B888A892D041343DB
:1077B0000F4A2D0C2B439042A4B29BB203D002F58A
:1077C000806290420ED1CA894D8A23F00803134388
:1077D0008A8823F0040313430A8A24F4407415436F
:1077E0002C43A4B2848006838A684263038470BDFC
:1077F00000000140038C23F010031B041B0C0384C6
:10780000038C30B58588028B0C8822F4E642120482
:10781000120C42EA042223F0200394B21B048A894A
:107820001B0C43EA02134A8843EA0213124A9042AD
:10783000ADB29BB203D002F58062904215D123F025
:107840008003CA899BB243EA02124FF6BF7313400A
:107850008A8843EA02130A8A25F4406545EA8205CC
:107860004A8A45EA82059BB2ADB2858004838A6864
:107870008263038430BD00BF00000140038C23F409
:1078800080531B041B0C0384038C30B58488828BCB
:107890000D8822F4E6421204120C23F4005342EA4B
:1078A00005221B048D891B0C43EA05334D8843EAEE
:1078B00005330B4DA842A4B292B29BB203D005F59A
:1078C0008065A84205D10D8A24F4804444EA8514D9
:1078D000A4B2848082838A680264038430BD00BFBE
:1078E0000000014041637047816370470164704745
:1078F000038B23F008031B041B0C194301837047FF
:10790000038B23F400631B041B0C43EA012189B29F
:1079100001837047838B23F400631B041B0C43EA31
:10792000012189B281837047B0F8443029B16FEAF0
:1079300043436FEA53439BB201E0C3F30E03A0F845
:107940004430704783899BB20AB1194301E023EAAE
:1079500001018181704700007FB5038ACA889BB20C
:1079600023F440531343038283890E469BB223F4CE
:10797000B053098923F00C02B3880B4371890B4380
:107980009BB213438381838AB2899BB223F44073F1
:107990001343838204466846FFF72AFE1A4B9C4233
:1079A00003D003F580639C4201D1039D00E0029D5A
:1079B000A38931681BB2002B4FF0190202FB05F2BC
:1079C000B4BF4D008D00B2FBF5F5A2896426B5FB6E
:1079D000F6F00001010912B2002A06FB1153ADBFF7
:1079E0001A01D90032313232B5BFB1FBF6F2B2FB27
:1079F000F6F302F0070203F00F03B4BF104318437D
:107A000080B2208104B070BD00100140838919B19B
:107A10009BB243F4005303E023F400531B041B0CFC
:107A200083817047C1F30801818070478088C0F36B
:107A300008007047838A9BB20AB1194301E023EA28
:107A400001018182704710B5C1F34214012301F096
:107A50001F01012C03FA01F301D10C3003E0022CC9
:107A60000CBF1030143012B10268134302E00268F8
:107A700022EA0303036010BDC94389B20180704745
:107A8000012310B5C1F3421401F01F029C4203FA16
:107A900002F201D1838903E0022C0CBF038A838A9E
:107AA0009BB21340028892B23BB1090A01238B407A
:107AB000134214BF0120002010BD184610BD090A52
:107AC00001238B40DB439BB20380704740F0BF60D3
:107AD000024B40F40030D860704700BF00ED00E07A
:107AE000C278037810B512B3164AD1684278C943F8
:107AF000C1F30221C1F10404E4B2A240D4B20F22C6
:107B00000A4181780A40224303F1604303F561434F
:107B10001201D2B283F8002303780122590903F03D
:107B20001F0302FA03F3084A42F8213010BD5A0934
:107B3000012103F01F03994002F12003024A42F899
:107B4000231010BD00ED00E000E100E04FF44070B4
:107B5000FFF7BCBF4FF0FF32826110220273FF2299
:107B6000026100F063BF000038B5037B012B0446BF
:107B700005D0037B102B02D0037B002B72D123781E
:107B8000394D55F82320138823F001031B041B0CE7
:107B90001380207800F0D4FF207800F05DFFE378B8
:107BA000022B03D12078617801F086F8207800F06C
:107BB0003FFF207800F064FF237855F823201388D6
:107BC0009BB243F0010313802378E16955F8230049
:107BD000FFF7A4FC6369D90208D52278224B53F839
:107BE000222013889BB243F0400313806369DA07B5
:107BF0001AD5237855F8232093899BB243F00103CB
:107C00009381237855F82320938923F0FE031B04E6
:107C10001B0C9381237855F823108B899AB26369E2
:107C200003F0FE0313438B8163695B0008D523785F
:107C300055F82320138823F480631B041B0C138046
:107C4000E378022B04D120786178626900F0A0FF0C
:107C50002078E3786169627801F046F801232373A4
:107C6000002038BD012038BD740000200F4A1049A3
:107C700011604BF6FF71D1804FF480610346518152
:107C80004FF4804100209181032110819080597030
:107C90000221D9704FF0FF31187398701861586045
:107CA000986058619961DA61704700BFCC5F00202D
:107CB000A086010010B58378434A012B037844D194
:107CC00041684968002940D1017B012902D0017B2C
:107CD00006293AD152F823303B494FF2FF029A82EB
:107CE000C378012B6DD1037851F82320938823F4B6
:107CF00000731B041B0C9380037851F82320938896
:107D000023F480631B041B0C938006238361037898
:107D100051F82320138B9C0705D58369012B02D0D2
:107D200083690133F6D18369012B02D08369013362
:107D300003D1BDE81040FFF70DBF4FF0FF33836163
:107D40000123037303F078FB3BE052F823101E4C31
:107D5000898A01F4706101611021017352F82330A6
:107D60004FF2FF0199820369D90510D5037854F8C1
:107D700023100B886FEA43436FEA53439BB20B8097
:107D8000037854F823100B88C3F30E030B800369A8
:107D90009B0510D5037852F823100B886FEA4343F4
:107DA0006FEA53439BB20B80037852F82320138869
:107DB000C3F30E031380036903690169007803F0BC
:107DC00031FB002010BD00BF7400002070B54FF0E3
:107DD000FF3383615C4E03785C4D56F8232055F8E1
:107DE000231012F0005F14BF496809680A4214BFEB
:107DF000012200220446002A68D0436800225A600B
:107E0000436958045ED4A378002B5BD12278504B91
:107E100053F822108A8822F400621204120C8A801D
:107E20000522A261227853F82200818A490703D5EE
:107E3000A169012907D12AE0A1690129F8D0A16926
:107E40000131F2D1F4E7A169013120D04FF0FF31C7
:107E5000A1616169090222D453F822100A8892B202
:107E600042F400720A800622A261227853F822109E
:107E70000A8B920705D5A269012A02D0A2690132B4
:107E8000F6D1A269012A02D0A269013204D12046AA
:107E9000BDE87040FFF75EBE4FF0FF32A26121786F
:107EA0002C4A52F821100A6822F001020A60227856
:107EB00053F82220938823F400731B041B0C938037
:107EC00001232373204603F0B7FA23E0224A55F832
:107ED000231052F8232090004CBF496809680A42D9
:107EE00014BF01220022AAB91C4A55F8231052F8E7
:107EF000232090004CBF496809680A4214BF012240
:107F000000223AB110221349227351F823306268DB
:107F10005B6853602378104A56F823100F4852F8D4
:107F2000232055F8234011F0005F0CBF50F8233098
:107F300050F8230042EA010215BF02431343E260F6
:107F4000A360002070BD00BF8C4401089800002091
:107F500074000020800000203C4401088044010897
:107F600070B54FF0FF338361534E0378534D56F88D
:107F7000232055F8231012F0005F14BF49680968E8
:107F80000A4214BF012200220446002A57D0836807
:107F900000225A60436918044DD4A378002B72D193
:107FA0002378474A52F823100B889BB243F400739E
:107FB0000B80237852F823108B8823F400631B0472
:107FC0001B0C8B800623A361237852F82300018BBE
:107FD000890703D4A169012907D109E0A169012911
:107FE000F8D0A1690131F2D1F4E7A169013104D1DE
:107FF0002046BDE87040FFF7ADBD4FF0FF31A161F5
:10800000304951F823100B6823F001030B602378EB
:1080100052F823108B8823F400731B041B0C8B80F5
:10802000237852F82320938823F480531B041B0CDD
:10803000938001232373204603F00EFA23E0224AA3
:1080400055F8231052F8232090004CBF4968096866
:108050000A4214BF01220022AAB91C4A55F8231073
:1080600052F8232090004CBF496809680A4214BFA7
:10807000012200223AB110221249227351F8233012
:10808000A2685B68536023780F4A56F823100F48A4
:1080900052F8232055F8234011F0005F0CBF50F830
:1080A000233050F8230042EA010215BF0243134374
:1080B000E260A360002070BD5444010898000020D5
:1080C00074000020A4000020E0440108A04401083E
:1080D00038B5104C04F10C0554F8043FBBB19A6953
:1080E00072B94FF0FF329A61236810221A73236825
:1080F0001A6962B9FF221A61206800F097FC06E055
:108100009A6901321EBF9A6902F1FF329A61AC424C
:10811000E2D138BD4400002038B5C378012B0446B5
:1081200002D0022B0AD04FE002782A4B53F82220CB
:1081300093889BB243F48063938049E0254A037897
:1081400052F82300838823F400731B041B0C8380E4
:10815000237852F8230083889BB243F40063838022
:10816000237B062B154601D0012910D162692078A6
:10817000616800F055FD237855F82320938823F497
:1081800080531B041B0C93802278134B15E0237B38
:108190000A2B01D002291BD12078A168626900F066
:1081A00065FDA3783BB9237855F8232093889BB2CB
:1081B00043F4805393802278084B53F822201368AD
:1081C00043F00103136003E010230373012038BD63
:1081D000002038BD7400002080000020A400002092
:1081E00038B5037B990704464CD4037B032B49D055
:1081F000037B052B46D0037B002B43D0037B102B46
:1082000040D00223037343691F4D13F0807F03782E
:108210001AD10622826155F823100A8B920705D5E0
:10822000A269012A02D0A2690132F6D1A269012A0B
:1082300002D0A269013204D12046BDE83840FFF7E0
:1082400089BC4FF0FF32A261A2788AB955F8232089
:1082500013889BB243F4807313806369DB0303D5F7
:1082600020460121FFF758FF032323731F23A36137
:10827000237855F8232093889BB243F400739380AE
:10828000002038BD012038BD7400002038B5037BC4
:108290009D07044600F11781037B032B00F0138137
:1082A000037B052B00F00F81037B002B00F00B817B
:1082B000037B102B00F00781022303734369834D76
:1082C00013F0807F18D106228261027855F82210BF
:1082D0000A8B900705D5A269012A02D0A269013252
:1082E000F6D1A269012A00F0C780A269013200F02C
:1082F000C3804FF0FF32A261E278022A07D1A26860
:108300005268012A02BF43F400136361E27063699B
:10831000D90300F1BA80A378002B40F0B68023780F
:1083200055F8232013889BB243F4807313801F23D6
:10833000A361237855F823108A8AD20703D5A2694E
:10834000012A07D198E0A269012AF8D0A269013276
:10835000F2D1F4E7A269013200F08E804FF0FF32D3
:10836000A261E2699289B2F5804F1DD155F82320B0
:10837000A3689B6803F0FE0313820423A3612378A0
:1083800055F82320938A9B0705D4A369012B02D0BB
:10839000A3690133F6D1A369012B6DD0A369013321
:1083A0006AD04FF0FF33A361237855F82320918AD8
:1083B000128B0322A26155F823108A8A100605D475
:1083C000A269012A02D0A2690132F6D1A269012A6A
:1083D00052D0A26901324FD04FF0FF32A2616269E0
:1083E00055F8233012F4003FA26810D1127B1A8294
:1083F0000323A361237855F82320938A190635D4E3
:10840000A369012B32D0A3690133F6D12EE0527B50
:108410001A820323A361237855F823108A8A12064F
:1084200003D5A269012A07D126E0A269012AF8D062
:10843000A2690132F2D1F4E7A26901321CD04FF0F7
:10844000FF32A261A26855F82330127B1A820323FF
:10845000A361A361237855F82320938A1B0605D4D2
:10846000A369012B02D0A3690133F6D1A369012BC3
:1084700002D0A369013304D12046BDE83840FFF79C
:1084800069BB4FF0FF33A36105E0E178022902D117
:108490002046FFF741FE05232373A3784BB92378C9
:1084A00055F8232013889BB243F4807313801F2355
:1084B000A361237855F8232093889BB243F400737B
:1084C0009380002038BD012038BD00BF740000201B
:1084D00073B5924A01780023ADF8063052F8213086
:1084E0000446988A00F0DF00ADF80600A078154633
:1084F00010BBBDF80600C00720D54FF0FF33A361C5
:10850000E3699B89B3F5804F16D1237B52F8212074
:10851000052B0BBFA36863689B689B6805BF43F08E
:108520000103DBB203F0FE03138216BF13820A239A
:10853000062323730423A361002674E2BDF80620FA
:1085400002F0020292B2002A00F0C980E278022A08
:108550000BD1237B062B01D1636803E0237B0A2B1D
:1085600003D1A3685B68013301E04FF0FF33A361DF
:10857000237B0A2B12D1012A10D1A3685E686EB941
:1085800055F821100B889BB243F400730B802378BD
:1085900055F82330998A1B8B227344E2237B0A2BE4
:1085A00005D1012A03D120460221FFF7B5FD237B27
:1085B0000A2B237816D1A2685268012A12D155F8E5
:1085C0002320138823F480631B041B0C138023785F
:1085D00055F82320938A138B13889BB243F40073BE
:1085E00013801EE0E278012A17D1227B0A2A14D1D7
:1085F000A2685268022A10D155F82320138823F468
:1086000080631B041B0C1380237855F823201388E8
:108610009BB243F400631380237855F823309A8A81
:108620001B8B636913F4803686D1227B062A51D1D5
:10863000227813F4003F55F82220636810D11B7B89
:1086400013820323A361237855F82320938A190604
:1086500035D4A369012B32D0A3690133F6D12EE0C2
:108660005B7B13820323A361237855F823108A8A46
:10867000120603D5A269012A07D1B7E1A269012A2E
:10868000F8D0A2690132F2D1F4E7A269013200F018
:10869000AD814FF0FF32A261626855F82330127B42
:1086A0001A820323A361237855F82320938A18069E
:1086B00005D4A369012B02D0A3690133F6D1A369C4
:1086C000012B00F09381A369013300F08F814FF0FB
:1086D000FF33A36120460321FFF71EFDA3E1BDF890
:1086E0000610090665D5217B062962D1E1780129AA
:1086F0007FF422AF61684E6896B1096809781982E3
:1087000061684B68013B4B606368596800293FF41E
:1087100013AF1968013119600EE700BF7400002023
:10872000626912025FBF1A8892B242F400721A8024
:1087300023788C4A55F823108B8823F400731B048C
:108740001B0C8B80237855F823108B8823F48063CF
:108750001B041B0C8B806369062113F4000F237824
:10876000A16152F8232010D1938A03F084037BB1D6
:10877000A369012B0CD0A3690133F5D108E0A369EB
:10878000012B05D0A369013302D0938A1806F6D4D1
:10879000A369012B00F02A81A369013300F026812F
:1087A0004FF0FF33A36101232373204602F044FE00
:1087B00039E1BDF8062051067FF5BEAE227B0A2ABC
:1087C0007FF4BAAEE278012A7FF4B6AEA2685168AF
:1087D000032900F2C9805168012906D112681B8A59
:1087E0001370A2685368013B5360A3685B68022B57
:1087F00043D1237855F82320938823F480631B0406
:108800001B0C93800523A361237855F823108A8AD3
:10881000520703D5A269012A07D1E7E0A269012A1C
:10882000F8D0A2690132F2D1F4E7A269013200F076
:10883000DD804FF0FF32A26155F8232013889BB2F0
:1088400043F4007313802278A36855F822201B6834
:10885000128A1A70A268136801331360A268536801
:10886000013B53602278A36855F822201B68128AC6
:108870001A70A2685368013B5360A3685B68032BBE
:108880007DD1237855F82320938823F480631B043B
:108890001B0C93800523A361237855F823108A8A43
:1088A000560703D5A269012A07D19FE0A269012AD0
:1088B000F8D0A2690132F2D1F4E7A269013200F0E6
:1088C00095804FF0FF32A26155F82320138823F4DE
:1088D00080631B041B0C13802278A36855F82220A8
:1088E0001B68128A1A70A268136801331360A268A9
:1088F0005368013B53600523A361237855F8231087
:108900008A8A500703D5A269012A07D16EE0A269BD
:10891000012AF8D0A2690132F2D1F4E7A26901324A
:1089200064D04FF0FF32A26155F8232013889BB228
:1089300043F4007313802278A36855F822201B6843
:10894000128A1A70A268136801331360A268536810
:10895000013B53602278A36855F822201B68128AD5
:108960001A7008E07400002012681B8A1370A26855
:10897000136801331360A2685368013B5360A36816
:108980005E68002E7FF4D8AD237855F823209388B5
:1089900023F400731B041B0C9380237855F82320C9
:1089A000938823F480631B041B0C9380227855F872
:1089B0002230998A1B8A6369990241BF23F400130C
:1089C00063610223E3700623A36155F822100B8B29
:1089D0009B0705D5A369012B02D0A3690133F6D10A
:1089E000A369012B02D0A369013304D12046FFF70C
:1089F000B1F8064617E04FF0FF33A36155F8222087
:108A000013889BB243F480631380237855F82320A6
:108A1000138823F400631B041B0C138001232373AE
:108A2000204602F019FD304602B070BD00207047AC
:108A3000084B10B553F8204001212046FEF74CFEAC
:108A400020460021FEF748FE20460121BDE81040E7
:108A5000FEF72ABE04450108084B10B553F8204024
:108A600001212046FEF738FE20460021FEF734FEA5
:108A700020460021BDE81040FEF716BE044501085F
:108A8000264B2DE9F743044653F82000244B254F8D
:108A900053F82430244E18430121FEF7EDFD234BFB
:108AA00057F8240013F82450214B2A4633F81410A9
:108AB000FEF722FD1F4B56F8240033F814102A4607
:108AC000FEF71AFD02238DF805308DF804300123DE
:108AD0008DF8063000238DF80730174B57F8240027
:108AE00033F8149002AD45F8089D2946FEF7C4FC02
:108AF000124B56F8240033F81480CDF80080294634
:108B0000FEF7BAFC57F8240056F824104A464346AC
:108B100002F02CFC03B0BDE8F08300BFBC440108A8
:108B2000F84401083C0000208C000020704401083B
:108B300030440108B04401086A4401084C4401086B
:108B400037B502238DF8053000238DF804300C4B27
:108B500002AC33F8103044F8083D0A4B0546214674
:108B600053F82000FEF788FC074B33F815300093CC
:108B7000064B214653F82500FEF77EFC03B030BDBE
:108B80006A4401083C0000204C4401088C0000208D
:108B90001D4B70B505460E4653F820000121FEF727
:108BA0006BFD1A4B1A4953F825300B6000238B607C
:108BB0000B614B61CB610B624B62CB620B634B630E
:108BC0008B63144B4FF480628A6153F825304B60FD
:108BD0004FF4403216F0010F8A620C4606D0402353
:108BE000CB600D4B53F82500FEF750FBB30709D5BA
:108BF0000023E360094B064953F82500BDE87040A7
:108C0000FEF744BB70BD00BFD4440108EC4401082A
:108C1000DC5F0020C844010880000020A400002080
:108C200010B50E4C0E4B54F820401C600C689C6034
:108C30004968196112F480420A4918BF4FF48072E2
:108C400051F820105A6240225960DA60064B0449FC
:108C500053F82000BDE81040FEF718BBEC440108B3
:108C6000DC5F0020C84401088000002010B50E4CD5
:108C70000E4B54F820401C600C689C6049681961D8
:108C800012F400420A4918BF4FF4807251F82010C4
:108C90005A6200225960DA60064B044953F82000FA
:108CA000BDE81040FEF7F2BAEC440108DC5F00209A
:108CB000C8440108A4000020CA0738B504460D4680
:108CC00004D5074B53F82000FEF75AFAAB0706D538
:108CD000044B53F82400BDE83840FEF751BA38BDC4
:108CE00080000020A4000020F7B504460D4616467B
:108CF0001F46FEF72BFF01238DF807303B4B1B5D12
:108D00008DF804303A4B1B5D8DF80530394B01A8C6
:108D10001B5D8DF80630FEF7E3FE6B0216D4364B72
:108D20001B5D8DF80430354B1B5D8DF80530344BE1
:108D300001A81B5D8DF80630FEF7D2FE314B53F8CB
:108D4000242093889BB243F480739380022F4BD1ED
:108D5000F70723D52C4B1B5D8DF804302B4B1B5D87
:108D60008DF805302A4B01A81B5D8DF80630FEF703
:108D7000B7FE284B53F824100A6842F010020A602C
:108D800053F824100A6842F00402A8050A6041BFA3
:108D900053F82420136843F008031360B10723D568
:108DA0001D4B1B5D8DF804301C4B1B5D8DF8053091
:108DB0001B4B01A81B5D8DF80630FEF791FE194B89
:108DC00053F824100A6842F010020A6053F8241085
:108DD0000A6842F004020A60EA0441BF53F8242002
:108DE000136843F00803136003B0F0BD604401084A
:108DF000AC440108394401084844010863440108AF
:108E0000B644010874000020984401089B440108FE
:108E100036440108800000207C44010866440108B3
:108E2000B9440108A40000200148FFF751BB00BF6E
:108E30001C00002008B50248FEF73CFF002008BDDA
:108E40001C0000200148FEF7C1BF00BF1C0000202D
:108E50000148FFF785B800BF1C0000200148FFF75C
:108E600037BB00BF5400002008B50248FEF722FFC0
:108E7000002008BD540000200148FEF7A7BF00BF36
:108E8000540000200148FFF76BB800BF54000020D9
:108E900037B50023114C01930546032003F0D2F9A6
:108EA0002A68013C1369019314D0019B002BF4DA6A
:108EB000019B43F001030193019B13612968074B58
:108EC0000A690192013B02D0019AD207F8D403202B
:108ED00003F0B8F9002003B030BD00BF410D03001E
:108EE00010B5C4786CB900EB82000333D0F8D00021
:108EF0009B1022469A4204D051F82240046001326D
:108F0000F8E7002010BD10B50332D0F8D030921031
:108F10000020904204D01C6841F820400130F8E75E
:108F200001EB800010BD00000122F0B5002382702B
:108F300001294FF04002C37082800CD108230370D6
:108F4000042343704FF4A073C38002230372C172E1
:108F50004FF0A04309E041B90C230370062343708E
:108F60004FF4A063C380224BC17203F500624578C1
:108F70000261C36001461A460024AC4202F1200699
:108F800001F1040108D202F5106702F530620A65AA
:108F90004F6101343246F0E703F5806242610446D6
:108FA00003F58862C0F8CC2014F88C2B03EB421533
:108FB00003F5A06105F5A065A94203D044F8041F9C
:108FC0002031F9E703EB023203F5805100F1CC04C4
:108FD00002F58052914204D044F8041F01F58051FB
:108FE000F8E703F56063C0F80C310020F0BD00BF66
:108FF0000000044038B5037A012B05464FF0000409
:1090000050F80C2F1FD1936B697A64F3104309B1A8
:1090100043F480139363EA68D3686FF386136FF3A6
:1090200096536FF351436FF3D343D360FFF730FF91
:10903000EB78012B19D1052363F34404EB6844F06A
:1090400020049C6011E0D36843F04003D360FFF735
:109050001FFF6B7AEA68002B0CBF4FF434134FF4F8
:1090600074139363142003F0F7F8EB78012B01BF1E
:10907000EB689C68052262F3440404BF44F02004BA
:109080009C60002038BDC268936843F00103936080
:1090900000207047C268936823F0010393600020AA
:1090A0007047000007B500230193019B43F02003A4
:1090B0000193019B01F01F0123F4F86343EA81113E
:1090C0000191C368019A1A61C168074B0A6901924C
:1090D000013B02D0019A9206F8D4032003F0B2F8C3
:1090E000002003B05DF804FB410D030007B5002329
:1090F0000193019B43F010030193C368019A1A6125
:10910000C168074B0A690192013B02D0019AD2065D
:10911000F8D4032003F096F8002003B05DF804FBB8
:10912000410D030008B5C268D36801296FF35D7370
:109130006FF39E7302D143F0005302E009B943F08C
:109140008043D360322003F087F8002008BDC36855
:10915000586900F0010080F001007047C3685A6947
:109160009869104070470269136861F30103136046
:109170007047000010B5C26800239361C1686FF0AA
:1091800080424A61C1684FF0FF344C60C1684A6157
:10919000C26809499161C278C1689A4208BF102328
:1091A00043F470138A6943F4605343F00803134394
:1091B0008B61002010BD00BF0008008038B500237F
:1091C0001D46D0F80C311D600269136865F3CC238D
:1091D0001360C37A012B044625D10321FFF7C3FF97
:1091E000E36880225A62E1684FF4001362F30F03D0
:1091F0008B62A02363F30F05E36862F31F45C3F896
:1092000004514FF4907363F30F05E368C0F2200537
:10921000C3F808514FF4A07363F30F05E3686FF3CD
:109220001F45C3F80C5110212046FFF73BFF204695
:10923000FFF75CFF226900231361226953612269F1
:109240004FF0FF3191612269D36104F11802617816
:109250008B4210D2106801680029ACBF00214FF08A
:109260009041016011680020086152F8041BFF2042
:1092700088600133EBE704F15403002261788A42ED
:1092800010D2186801680029ACBF00214FF090414E
:10929000016019680020086153F8041BFF208860F2
:1092A0000132EBE72269136943F480731361E378B9
:1092B000012B01BF054B402262F35943226920462E
:1092C00008BF1363FFF756FF002038BD03010100FC
:1092D00003699B68C3F34103022B05D0032B01D024
:1092E000012B03D1022070470120704703207047F3
:1092F000036981699A680B68C2F34102022A06BFBA
:10930000032262F30A036FF30A030B6002695368D6
:1093100043F480735360002070474A780B7830B56F
:10932000012A15BF00EB830200EB8305556DAD6983
:109330001CBF012202FA03F34FF000040CBF9A4055
:1093400063F31F442B6808BF62F30F041A040DD4A3
:109350008A6862F30A03CA7862F39343CA8862F3A5
:10936000995343F0805343F400432B600269D3695F
:109370002343D361002030BD30B54A780B78012AF1
:1093800015BF00EB830200EB8301516D89694FF03B
:1093900000052C466FF3CF3508BF9A400D601ABF09
:1093A000012202FA03F362F30F04026918BF63F3A8
:1093B0001F44D36923EA0403D361002030BD70B594
:1093C0004E780B4609785A69012E00EB810146D18F
:1093D0008D6929682C6962F3120412B966F3DC44C2
:1093E0000BE09E683244013AB2FBF6F262F3DC44D1
:1093F000DA78012A08BF62F35E742C61C278012A10
:109400001A7805D100EB82021C69926954610BE065
:10941000DC78012C08D05C6934B106690125746BD5
:1094200005FA02F222437263DA78012A07D102694F
:109430009268D20554BF41F0005141F080511A7832
:1094400000EB820241F0044192691160DA78012A4E
:1094500037D1D9681A789B8AFFF742FD31E04E6D0B
:109460009D68316834692AB965F31204012262F3F8
:10947000DC440AE02A44013AB2FBF5F262F3DC4430
:10948000C2F309026A4362F312043461C278012A0A
:1094900001BF1A781C6900EB8202526D08BF54614B
:1094A000DA78012A06D15A7912B141F0005101E06F
:1094B00041F080511B7800EB830041F00441436D83
:1094C0001960002070BDF7B54F784D69012F3CD170
:1094D0008669346833690093DAB2C3F3074335B958
:1094E00065F306028DF8002067F3C4030EE08F6871
:1094F000BD428CBF67F3060265F306028DF80020BB
:109500004FF0010288BF4F6162F3C4038DF802304F
:10951000009B3361C378012B02BF0B780A6900EB13
:10952000830344F0044404BF9B695A613460C378E8
:10953000002B34D14B69002B31D000690978426B84
:1095400001238B401343436329E00E788F6800EBBF
:109550008606736D1C681B690093DAB2C3F3074378
:1095600005B14F6167F306028DF80020012262F316
:10957000C4038DF80230736D009A1A61C378012B11
:1095800002BF0B780A6900EB830344F0044404BF74
:109590005B6D5A610B7800EB8300436D1C6000200B
:1095A00003B0F0BD4B78012B0B7800EB830006D1A4
:1095B00082691368002B04DA43F0804301E0426DB6
:1095C000136843F400131360002070474B78012B9D
:1095D0000B78C97800EB8300A1F102010CBF82690E
:1095E000426D136801296FF3555398BF43F08053C0
:1095F00013600020704702699369D0691840000C1D
:10960000704700EB810102694B6D9B6850691840FF
:10961000704703699869DB69184080B2704782B06F
:1096200000230093C0238DF8033001224FF0000384
:1096300062F3C4038DF8023018238DF80030436DB7
:10964000009A1A61C378012B08D1436D00F2CC5205
:109650005A61436D1A684FF080221A6002B0704759
:109660002DE9F04F85B00446FFF771FD08B90020E1
:1096700026E22046FFF772FD06460028F7D0C0F329
:10968000074909F0080303F0FF00002B55D02046DE
:10969000FFF7B1FF04F154078046A3464FF0000ADC
:1096A000B8F1000F48D018F0010F3DD05FFA8AF2F0
:1096B000114620460192FFF7A4FF10F0010F054666
:1096C000019A22D03B6801259D60E378AB4201BF3F
:1096D0003B681B69C3F31201DBF87C3304BF5B1AE0
:1096E000CBF88C33A74B1B6820461B681146984764
:1096F000E378012B09D1BAF1000F06D194F81131AA
:10970000052B02D12046FFF78AFFAB0742BF3B681B
:1097100002259D602D0707D59A4B1B6820469B6844
:1097200098473B6808259D600AF1010A4FEA5808EE
:1097300004370BF1280BB3E7012019F0040F00F0F8
:10974000A1802046FFF765FF04F1180882462746EE
:109750004FF00009BAF1000F00F093801AF0010FEA
:1097600000F0878022695FFA89FB1569536B04EB6F
:109770008B0123FA0BF38969DB018968DBB22B4388
:1097800003EA0105E8071CD5536B012505FA09F129
:1097900023EA01035363D8F800309D60794B1B68BE
:1097A00020465B6859469847E378AB4209D1B9F146
:1097B000000F06D194F81131042B02D12046FFF797
:1097C0002EFF290742BFD8F8003008259D60EA0621
:1097D00042BFD8F8003010259D606B0642BFD8F814
:1097E000003040259D60A80742BFD8F80030022510
:1097F0009D6029063DD5D7F83031D7F834515D1B2F
:10980000D7F82431AB4228BF2B46DD1CAD08D8F871
:1098100000309B699BB2AB4227D9D7F83421D7F8E7
:1098200030319A4221D203B3C2EB030CD7F8243172
:10983000D7F828119C4528BF9C461FFA8CF3204678
:109840005A460CF10305CDF804C0FFF749FBD7F8E1
:109850002831DDF804C06344C7F82831D7F8343123
:109860006344AD08C7F83431D1E7D8F8003080251B
:109870009D6009F101094FEA5A0A08F104082837E6
:1098800068E70120F5B2AA0742BFE36802225A61E5
:10989000002E19DAA37A43B1D4F80C31D4F80C2194
:1098A0006FF341036FF3000313602269536823F0E1
:1098B00001035360334B1B6820469B699847E3685C
:1098C0004FF000425A610120C6F307273B072FD50E
:1098D00000238DF80F3094F812318DF80F30294B9A
:1098E0001B6820465B6998472369E2689B684FF4D0
:1098F00000615161A27AD2B1D90718D594F8153117
:10990000012B14D19DF80F30032B10D1D4F80C216A
:10991000136843F001031360D4F80C21136843F07B
:1099200003031360184A136943F00603136101200F
:109930002A0708D5134B1B682046DB689847E36865
:1099400008225A610120EB0640D5E268936923F0B2
:1099500010039361E368D3F82080C8F34343022BDC
:1099600008F00F0512D0062B2AD1204604F2CC5164
:109970000822FFF7C8FA282303FB0545C8F30A1895
:1099800019E000BFB000002000ED00E047F6F073E2
:1099900008EA0303A3B1282303FB0545C8F30A180B
:1099A0002046D5F880134246FFF7ADFAD5F880334C
:1099B0004344C5F88033D5F88C334344C5F88C3321
:1099C000E268936943F0100393610120FD063BD5E3
:1099D000226953684FF0000823F0010353602046CA
:1099E0004146FFF75FFB04F11402434661788B4266
:1099F00007D252F8040FFF218160D06B01338160E0
:109A0000F4E723694FF0FF329A610125236965F37A
:109A10000F0865F31F48C3F81C8022690B235361AC
:109A200022691361226913686FF30A1313602046D9
:109A3000FFF7F5FDE3684FF480525A61224B1B6833
:109A400020461B6998472846B9061FD52046FFF7D0
:109A50004FFCE3682046DD68FFF73AFC03280BBFA4
:109A600000230123A370A3700BBF4FF400734023A6
:109A7000A380A3800CBF0923052363F38D25E3682E
:109A8000DD60E3684FF400525A610120C6F30746D7
:109A9000F20609D50C4B1B682046DB699847E36842
:109AA0004FF480125A610120B30609D5064B1B689A
:109AB00020461B6A9847E3684FF400125A61012060
:109AC00005B0BDE8F08F00BFB000002038B50446F7
:109AD000FFF72AFA01230022607884F8123184F813
:109AE000142104F21D13824203F1280312D2012132
